:0300000002009C5F
:0C009C00787FE4F6D8FD758108020003AF
:10008C003F065B4F666D7D077F6F777C395E7971BC
:10004500E4FDFCC3ED9FEE6480F8EC6480985015E8
:10005500E4FBFA0BBB00010AEB646E4A70F50DBDBB
:0500650000010C80DE2B
:01006A002273
:06006B0075F00A8493FF0A
:10007100E4FBFAEF1392B0C2B1EFC313FFD2B10B9D
:0A008100BB00010AEB64084A70E9B5
:01008B002252
:10000300E4F508F909B93C0C0508E4F9E508B43C42
:1000130003E4F508E975F00A84E5F090008C93FF9A
:10002300120071E912006BE50875F00A84E5F0939C
:10003300FF120071E50812006B7FE87E0312004592
:0200430080C279
:00000001FF
