:10040D00E4FEC2A2EF3392A0EF25E0FFD2A20EBE12
:02041D0008F0E5
:01041F0022BA
:10042000E4FEC2A6EF3392A4EF25E0FFD2A60EBEF3
:0204300008F0D2
:0104320022A7
:10043300E4FEC294EF339292EF25E0FFD2940EBE16
:0204430008F0BF
:010445002294
:1003A700AC03C2A112040DAF0512040DAF04120471
:1003B7000DAF1112040DAF1212040DAF1312040D7D
:0303C700D2A1229E
:1003CA00AC03C2A5120420AF05120420AF04120424
:1003DA0020AF11120420AF12120420AF131204200E
:0303EA00D2A52277
:0D044600C293120433AF05120433D2932287
:1001940075110175120C7513017B0C7D017F0C1216
:1001A40003A7E4F51175120FF5137B0F1D7F0F12D2
:1001B40003A7E4F511751209F5137B097F091203EE
:1001C400A775110775120B7513077B0B7D077F0B42
:1001D4001203A775110475120A7513041B7D047F9D
:1001E4000A1203A775110175120C7513017B0C7D9E
:1001F400017F0C1203CAE4F51175120FF5137B0F7E
:100204001D7F0F1203CAE4F511751209F5137B095A
:100214007F091203CA75110775120B7513077B0B3F
:100224007D077F0B1203CA75110475120A75130436
:100234001B7D047F0A1203CA7D017F0C120446E46D
:100244001D7F0F1204467DFF7F091204467D077F40
:0B0254000B1204467D047F0A020446E2
:1003ED0000008F9FB0E0C0FC183060FFFF60301838
:1003FD00FCC0E0B09F8F00003C42A59999A5423CFE
:09045300010A0A010B0201080074
:10025F00758901758C3C758AB0D2AFD2A9D28C1238
:10026F000194E509704FE508704B750D01E50D9090
:10027F00040493FDF511850D12E50D9003FC93F524
:10028F0013AB0DAF0D1203A7E50D9003EC93FDE536
:10029F000D9003F493F511850D12E50D9003FC936A
:1002AF00F513AB0DAF0D1203CA050DE50DC3940980
:1002BF0040BB750801E509B402A8E50870A4750DE7
:1002CF0001E50D9003EC93FDE50D9003F493F5110B
:1002DF00850D12E50D9003FC93F513AB0DAF0D12C9
:1002EF0003A7E50D9003EC93FDE50D90040493F542
:1002FF0011850D12F513AB0DAF0D1203CA050DE5E8
:0C030F000DC3940940BB75080102027187
:03000B0002000EE2
:10000E00C0E0C0F0C083C082C0D075D000C000C0B8
:10001E0001C002C003C004C005C006C007758C3CF9
:10002E00758AB0050CE50C64146003020179E509CC
:10003E00704F758041E50A75F00A84FD7F01120448
:10004E0046E50A75F00A84ADF07F02120446E50A11
:10005E0024FE75F00A84FD7F03120446E50A24FE91
:10006E0075F00A84ADF07F04120446150AE50A64A1
:10007E00026003020176750901750A0AF50802018C
:10008E0076E50964017049758021E50B75F00A84E7
:10009E00FD7F01120446E50B75F00A84ADF07F0278
:1000AE00120446E50B75F00A84FD7F03120446E543
:1000BE000B75F00A84ADF07F04120446150BE50BA8
:1000CE006003020176750902750B02F508020176CE
:1000DE00E5096402704B758014E50A24FE75F00A7A
:1000EE0084FD7F01120446E50A24FE75F00A84ADF4
:1000FE00F07F02120446E50A75F00A84FD7F0312B2
:10010E000446E50A75F00A84ADF07F041204461524
:10011E000AE50A64027051750903750A0AF508802A
:10012E0047E50964037041758012E50B75F00A848A
:10013E00FD7F01120446E50B75F00A84ADF07F02D7
:10014E00120446E50B75F00A84FD7F03120446E5A2
:10015E000B75F00A84ADF07F04120446D50B0975B9
:10016E000900750B02750800750C00D007D006D07B
:10017E0005D004D003D002D001D000D0D0D082D090
:06018E0083D0F0D0E03246
:0300000002031BDD
:0C031B00787FE4F6D8FD758113020362C0
:1003270002025FE493A3F8E493A34003F68001F28B
:1003370008DFF48029E493A3F85407240CC8C333D7
:10034700C4540F4420C8834004F456800146F6DFA6
:10035700E4800B0102040810204080900453E47EDF
:10036700019360BCA3FF543F30E509541FFEE4939B
:10037700A360010ECF54C025E060A840B8E493A362
:10038700FAE493A3F8E493A3C8C582C8CAC583CA8D
:10039700F0A3C8C582C8CAC583CADFE9DEE780BE45
:01045C00009F
:00000001FF
