:100076003F065B4F666D7D077F6F777C395E7971D2
:10005600D3EF9400EE6480948040147D6E7C00EDB6
:0F0066001D70011CED4C70F7EF1F70E41E80E160
:010075002268
:10003500E4FBFAEF1392B0D2B1EFC313FFC2B10BD9
:10004500BB00010AEB64084A70E97F017E000200EB
:010055005654
:100003007FE87E03120056E4F508F509E509900040
:100013007693FF1200357FE87E031200560509E54B
:100023000970020508C39410E5086480948040DCDD
:0200330080D576
:0300000002008675
:0C008600787FE4F6D8FD758109020003C4
:00000001FF
