:030000000200BC3F
:0C00BC00787FE4F6D8FD75810802008D05
:0600C80032333333320035
:1000A500D29C759852758921758DFF758BFFD28EFF
:0700B500C29FD29ED2AF22D0
:10005400D3EF9400EE6480948040147D6E7C00EDB8
:0F0064001D70011CED4C70F7EF1F70E41E80E162
:01007300226A
:10008D007508781200A57BFF7A0079C81200037FEE
:08009D00E87E0312005480EE1E
:10000300120074601CFF09E970010AC0E0EAC0E055
:10001300EBC0E012002DD0E0FBD0E0FAD0E0F98095
:0A002300DF7F0A12002DE4FEFF2229
:10007400BB010689828A83E0225002E722BBFE028A
:09008400E32289828A83E49322BD
:10002D00EFB40A07740D120038740A309811A899AC
:10003D00B8130CC2983098FDA899C298B811F63033
:07004D0099FDC299F599220B
:00000001FF
