:06129B00252E3366000061
:091281000140000152000151007E
:0F11EF008F807F057E001211FED2A17F057E004A
:1011FE00D3EF9400EE6480948040147D6E7C00EDFD
:0F120E001D70011CED4C70F7EF1F70E41E80E1A6
:01121D0022AE
:08128B00C2A01211EFC2A12262
:08129300D2A01211EFC2A1224A
:10125A007F3812128B7F0C12128B7F0612128B7F31
:04126A000102128BE0
:0D118F0078401207728F568E558D548C5388
:10119C007567FF75681275699B8F6D8E6C8D6B8C86
:1011AC006A7B007A007962120CF07B007A0079621B
:1011BC00121245AB07D3EB6480949040027B107FF6
:1011CC000112128BC374D09BFF12128BE4F55F7467
:1011DC0062255FF8E6FF121293055FE55FC3940C7E
:0211EC0040EDD4
:0111EE0022DE
:10000300E4F5617590FE85B060E5B0F4700302011C
:100013003A85B060E560241170030200F024F870A3
:10002300030200B024FC605A24FE6015146003022E
:100033000130756101E4F55EF55DF55CF55B020188
:1000430030756102E5407017855E56855D55855CA8
:1000530054855B53AF56AE55AD54AC5312119CE56A
:100063004064016003020130855E5A855D59855CF9
:1000730058855B57AF5AAE59AD58AC5712119C0215
:100083000130756103E540700C85565E85555D85CD
:10009300545C85535BE54064016003020130855A7B
:1000A3005E85595D85585C85575B02013075610437
:1000B300E5407013AF56AE55AD54AC53AB5EAA5D7D
:1000C300A95CA85B121191E54064017060AF5AAE60
:1000D30059AD58AC57AB5EAA5DA95CA85B12077219
:1000E3008F5A8E598D588C5712119C80407561051B
:1000F300E5407016AF56AE55AD54AC53AB5EAA5D3A
:10010300A95CA85B12076E121194E540B4011EAFFF
:100113005AAE59AD58AC57AB5EAA5DA95CA85B1249
:10012300076E8F5A8E598D588C5712119CE5B0F477
:10013300600585B06080F67590FD85B060E5B0F42C
:10014300700302020585B060E560241170030201AB
:10015300F824F8606E24FC604524FE600C146003F0
:100163000201FB7561060201FB756107E54070132F
:10017300F556F555F554F553AF56AE55AD54AC534E
:1001830012119CE5406401706FF55AF559F558F565
:1001930057AF5AAE59AD58AC5712119C805A75617E
:1001A30008E4F556F555F554F553F55AF559F55850
:1001B300F557F540F552AF56AE55AD54AC53121149
:1001C3009C8035756109E540700EAF56AE55AD5450
:1001D300AC53120A09121194E540B4011BAF5AAE95
:1001E30059AD58AC57120A098F5A8E598D588C57EE
:1001F30012119C800375610AE5B0F4600585B06057
:1002030080F67590FB85B060E5B0F470030203429D
:1002130085B060E5602411700302033524F8700390
:1002230002032A24FC70030202DA24FE60581460DD
:100233000302033875610BE5407019FFFE7D207CD6
:1002430041AB56AA55A954A853120863E4FBFA79A3
:10025300E012118FE54064016003020338FFFE7D65
:10026300207C41AB5AAA59A958A857120863E4FB4A
:10027300FA79E078401207728F5A8E598D588C574D
:1002830012119C02033875610CE540701AFFFE7D64
:10029300207C41AB56AA55A954A853120863E4FB2A
:1002A300FAF97841121191E54064016003020338C1
:1002B300FFFE7D207C41AB5AAA59A958A8571208C2
:1002C30063E4FBFAF978411207728F5A8E598D58FD
:1002D3008C5712119C805E75610DE540701BFFFE0B
:1002E3007D207C41AB56AA55A954A853120863E458
:1002F300FBFA79107841121191E54064017036FFE1
:10030300FE7D207C41AB5AAA59A958A8571208630D
:10031300E4FBFA791078411207728F5A8E598D587F
:100323008C5712119C800E75610E75400175520435
:10033300800375610FE5B0F4600585B06080F675E4
:1003430090F785B060E5B0F4700302048085B06077
:10035300E5602411700302047024F870030204653D
:1003630024FC700302041724FE6058146003020483
:1003730076756110E5407019FFFE7D207C41AB5618
:10038300AA55A954A853120863E4FBFA7980121101
:100393008FE54064016003020476FFFE7D207C410B
:1003A300AB5AAA59A958A857120863E4FBFA7980F3
:1003B30078401207728F5A8E598D588C5712119CA0
:1003C300020476756111E5407019FFFE7D207C41C2
:1003D300AB56AA55A954A853120863E4FBFA79A0B3
:1003E30012118FE54064016003020476FFFE7D2055
:1003F3007C41AB5AAA59A958A857120863E4FBFADF
:1004030079A078401207728F5A8E598D588C5712E3
:10041300119C805F756112E5407019FFFE7D207CA1
:1004230041AB56AA55A954A853120863E4FBFA79C1
:10043300C012118FE54064017039FFFE7D207C41BD
:10044300AB5AAA59A958A857120863E4FBFA79C012
:1004530078401207728F5A8E598D588C5712119CFF
:10046300801175611375400175520380067561141F
:10047300754001E5B0F4600585B06080F67590EFD6
:1004830085B060E5B0F4700302064785B060E560AF
:10049300241170030205B424F870030205A824FC98
:1004A300700302055624FE605A14600302063D756C
:1004B3006115E540701BFFFE7D207C41AB56AA55BC
:1004C300A954A853120863E4FBFA7980783F121108
:1004D30091E5406401600302063DFFFE7D207C41FF
:1004E300AB5AAA59A958A857120863E4FBFA7980B2
:1004F300783F1207728F5A8E598D588C5712119C60
:1005030002063D756116E5407018FFFE7D207C41B3
:10051300AB56AA55A954A853120863E4FBFAF9127F
:10052300118FE5406401600302063DFFFE7D207CE0
:1005330041AB5AAA59A958A857120863E4FBFAF920
:1005430078401207728F5A8E598D588C5712119C0E
:1005530002063D756117E5407019FFFE7D207C4161
:10056300AB56AA55A954A853120863E4FBFA794081
:1005730012118FE5406401600302063DFFFE7D20FA
:100583007C41AB5AAA59A958A857120863E4FBFA4D
:10059300794078401207728F5A8E598D588C5712B2
:1005A300119C02063D7561187540017552020206E1
:1005B3003D756119754001E55224FE6022146037D0
:1005C30014604C2403705EAF5AAE59AD58AC57ABB0
:1005D30056AA55A954A85312077212119C8046AB10
:1005E3005AAA59A958A857AF56AE55AD54AC531291
:1005F300076E12119C802EAF5AAE59AD58AC57AB53
:1006030056AA55A954A85312086312119C8016AB1D
:100613005AAA59A958A857AF56AE55AD54AC531260
:10062300096C12119CE4F540F552F556F555F55455
:10063300F553F55AF559F558F557E5B0F4600585C6
:10064300B06080F67590DF85B060E5B0F4700302AA
:10065300076485B060E5602411607324F860632447
:10066300FC605624FE604914600302075A75611A40
:10067300E5407014AF56AE55AD54AC53FBFA792038
:100683007841120863121194E54064016003020784
:100693005AAF5AAE59AD58AC57FBFA79207841128C
:1006A30008638F5A8E598D588C5712119C02075A22
:0B06B30075611B75510102075A75614B
:1006BE001C75400102075A75611D75400175520186
:1006CE0002075A75611E754001E55224FE60221420
:1006DE00603714604C2403705EAF5AAE59AD58ACFF
:1006EE0057AB56AA55A954A85312077212119C80E3
:1006FE0046AB5AAA59A958A857AF56AE55AD54ACE9
:10070E005312076E12119C802EAF5AAE59AD58ACD3
:10071E0057AB56AA55A954A85312086312119C80C0
:10072E0016AB5AAA59A958A857AF56AE55AD54ACE8
:10073E005312096C12119CE4F540F552F556F5551D
:10074E00F554F553F55AF559F558F557E5B0F460EB
:0C075E000585B06080F67590FF75B0FF57
:01076A00226C
:10126E0012125AAF56AE55AD54AC5312119C120019
:03127E000380FBEF
:10076B00020A4FE86480F8E933E83360110460F063
:10077B00ED33EC337009E8FCE9FDEAFEEBFF2204F4
:10078B0060DED3EB9FEA9EE99DE8C2E78CF0C2F7EF
:10079B0095F0400CE8CCF8E9CDF9EACEFAEBCFFBBB
:1007AB00120A1A85D0F05804700320D5B3E80470F0
:1007BB00075002B2D5020A5992D5EC0460F7E4CC8B
:1007CB00C0E0C398F8603B94186008400DD0E0FB84
:1007DB00020A31E4FBFAC9FC8028E830E406E4C9DC
:1007EB00FBE4CAFCE830E305E4C9CACBFCE85407D8
:1007FB006010F8C3E913F9EA13FAEB13FBEC13FCE3
:10080B00D8F130F52FC3E49CFCEF9BFFEE9AFEED85
:10081B0099FDD0E0FBEF4E4D4C701222DB03020A28
:10082B0056EC2CFCEF33FFEE33FEED33FDED30E7F2
:10083B00EB020A31EF2BFFEE3AFEED39FDD0E0FB78
:10084B0050130BBB0003020A59ED13FDEE13FEEF21
:08085B0013FFEC13FC020A314B
:10086300EC4D6011E8497017ED33EC3304600DE48F
:10087300FCFFFEFD22E933E8330470F8020A4F124D
:100883000A1A58046009E4CC24815006285009024E
:100893000A59284003020A56C0E0EB4A7044B98063
:1008A30006D0E0FB020A45EF4E701CBD8008EBFF4B
:1008B300EAFEE9FD80EBE98DF0A4FEE5F002094CC8
:1008C300E9CDF9EAFEEBFFEF89F0A4FCE5F0CE8970
:1008D300F0A42EFFE435F0CD89F0A42DFEE435F02D
:1008E3008067EF4E7005BD80D780C3EF8BF0A4AC5B
:1008F300F0EE8BF0A42CFCE435F0F8EF8AF0A42C96
:10090300E5F038FCE433CB8DF0A42CFCE5F03BF8A8
:10091300EE8AF0A42CFCE5F038F8E433CF89F0A498
:100923002CFCE5F038CF3400CE89F0A42FFFE5F09E
:100933003EFEE433C98DF0A42EFEE5F039CD8AF0F6
:10094300A42FFFE5F03EFEE43DFD33D0E0FB50076E
:100953000BBB000F020A59EC2CFCEF33FFEE33FE06
:06096300ED33FD020A3134
:10096900020A59EC5D046005E859047003020A4F54
:10097900120A1A580460F6EC4860F2EC7004FDFEA5
:10098900FF22C860DB2481C85009C3986002500661
:10099900020A569850CAF582E9294B4A7005AB827A
:1009A900020A4575F0007C1A7880C3EF9BEE9AED38
:1009B90099400DC3EF9BFFEE9AFEED99FDE842F0D9
:1009C900DC23ACF0D0E0FFD0E0FED0E0FDAB82202C
:1009D900E7101BEB60BAEC2CFCEF33FFEE33FEEDB6
:1009E90033FD020A31E803F830E705C0F075F0007D
:1009F900EF2FFFEE33FEED33FD40B830E7C280AA9A
:100A0900ED33EC33600A047003BD8004ECB2E7FCFB
:010A190022BA
:100C9400E57B2467F8E6057B2278643007027867F1
:100CA400E475F001120C5E020C062000EB7F2ED2DC
:100CB400008018EF540F2490D43440D4FF30040B38
:100CC400EF24BFB41A0050032461FFE57C600215D1
:100CD4007C057FE57F7002057E30070D7864E4753E
:100CE400F001120C5EEF020C4C02121E7403D207C8
:100CF4008003E4C207F57B8B648A658966E4F57C2E
:100D0400F57EF57FE57C60077F20120CCF80F575BA
:100D14007DFFC201C200C202C203C205C206C208EC
:100D2400120C9DFF700D3007057F00120CE0AF7FA1
:100D3400AE7E22B4255FC2D5C204120C9DFF24D01E
:100D4400B40A00501A75F00A787C30D50508B6FF4D
:100D54000106C6A426F620D5047002D20380D92445
:100D6400CFB41A00EF5004C2E5D204020FCDD20171
:100D740080C6D20080C0D20280BCD2D580BAD2054F
:100D840080B47F20120CCF2002077401B57C004090
:100D9400F1120C94FF120CCF020D08D208D2068077
:100DA40095120C94FB120C94FA120C94F94A4B70A1
:100DB4000679C47A107BFF20022EE57C602A7E002F
:100DC4008E82758300120C1F60060EEE657D70F036
:100DD400C2D5EBC0E0EAC0E0E9C0E0EE12102DD0CD
:100DE400E0F9D0E0FAD0E0FB120C06FF60AAEBC0F9
:100DF400E0EAC0E0E9C0E0120CCFD0E02401F9D071
:100E0400E03400FAD0E0FBE57D0460DCD57DD980D8
:100E140087D20280A212101060F7E57D70010412DF
:100E24000A64A97D600DE57D600914F57D1210B793
:100E3400EF60F3EA30E702F404C3995077EAF4254B
:100E44007D0430E701E404F57D800D12101060C1CB
:100E5400EA057D257D120A64EA787AF630E701E432
:100E6400257D04D57D042005011412102DE4C0E075
:100E74001210B7787AE6601320E70714F6120CB75D
:100E8400802204F6D0E014C0E07F00120CB7E57DA8
:100E94006007120CAE157D800B300503120CAED02A
:100EA400E0020D08D0E00480C512101060A0E57DBA
:100EB40004120A64787AEAF6E57D200502600104EA
:100EC400240412102D74FF04C0E01210B7120CB7E2
:100ED400E57D2005026003120CAED0E0B57DE87F0D
:100EE40045120CC1787AE67F2B30E7047F2DF40499
:100EF400C0E0120CCFD0E075F00A84C0F0120CB838
:100F0400D0E0120CB8020D08791080027908C206EC
:100F1400C2088008D2D5790A8004790AC2D5E57D51
:050F2400047002F57DE0
:100F2900E4FAFDFEFF120C94FC7B08200113120C5D
:100F390094FD7B1030000A120C94FE120C94FF7B76
:100F490020EC3382D592D55013C3E43000069FFFBD
:100F5900E49EFEE42001039DFDE49CFCE4CBF8C281
:100F690001EC700CCFCECDCCE824F8F870F38017E3
:100F7900C3EF33FFEE33FEED33FDEC33FCEB33FB14
:100F8900994002FB0FD8E9EB300105F8D0E0C448DD
:100F9900B201C0E00AEC4D4E4F78207B0070C2EAE6
:100FA900B57D0040BCC0E012102FD0F0D0E0200188
:100FB90004C4C0E0C4B201C0F0120CB8D0F0D5F03E
:100FC900EB020D08120C6E0DA5530F0C580D764C43
:100FD9000D72420F104F0F18440F18490D8B430F14
:100FE9001E550E4F460EAD450E194710E4500D7AA9
:100FF9002D0D7E2E0DA12B0D82230D9F2010D22A9F
:101009000D3A4800000D99E57DB4FF03757D061280
:101019000C94FC120C94FD120C94FE120C94FF78A3
:1010290073020A93790AA2D5200314300509B9106D
:10103900020404B9080104A2D520060250010420C3
:1010490002689202B57C005034C0E07F2030031959
:101059007F30A20272067205500F121086C202C2B8
:1010690006C205C2087F30800F300503E9C0E012CF
:101079000CCF300503D0E0F9D0E0B57CCC300517B2
:101089007F30B9100C120CCF7F583004077F78805D
:1010990003B90803120CCF3002057F2D020CCF7F54
:1010A900202008F87F2B2006F322920280CF7F00B0
:1010B900B4070050052473F8E6FF22286E756C6C9E
:1010C90029002D50434958D201120C943001F8C21D
:1010D90001787C30D50108F6020D3A120C942403EC
:1010E900B405004001E49010CB93120CC0743A127D
:0A10F9000CC0D203757C04020F0C3A
:100A1A00E9D2E7C933E833F892D5EDD2E7CD33EC22
:070A2A0033FC5002B2D5229B
:100A3100EC30E7100FBF000C0EBE00080DBD000426
:100A41000BEB6014A2D5EB13FCED92E7FD2274FFD2
:100A5100FCFDFEFF22E480F8A2D574FF13FC7D802B
:030A6100E480EF3F
:100A6400F920E72824F950037907E4F42402FB1859
:100A7400DBFDE624FB5014E9600DE4F618E604F609
:0F0A8400B40A08E4F6D9F57401F60A22C2D522A5
:100A9300ED33EC3392D5FA602AB4FF33EDC2E77B32
:100AA300FF60067A0A79B8E4227A0A79C120D5046C
:100AB3007A0A79BC224E614E002B494E46002D49DD
:100AC3004E4600E47A08F608DAFC7B00740722E855
:100AD300C0E0ECC0E0EDC0E0EEC0E0EFC0E0EA75DE
:100AE300F010A4CAABF075F04DA42BFBE435F0FC79
:100AF300EA2410FAEB34C5FBEC34D9FCEDC2E7FF72
:100B030075F056A4F42411C5F0F434C58FF0A42A6B
:100B1300E5F03BE43CF620E714120BC6D0E0FFD02F
:100B2300E0FED0E0FDD0E0FC12096C8014F4041266
:100B33000BC6D0E0FFD0E0FED0E0FDD0E0FC120811
:100B430063D0E0F8E6FAEDD2E7CD33EC332482FB51
:100B5300E4C3CF33CFCE33CECD33CD33DBF37B07FB
:100B630075F00A846004F6081B0AE5F0F6088FF0B6
:100B7300740AA4FFACF08EF0740AA42CFEACF050FF
:100B8300010C8DF0740AA42CFDE435F0F608DBDECD
:030B9300740722C2
:100B96003F8000004120000042C80000447A000067
:100BA600461C400047C35000497424004B189680E9
:100BB6004CBEBC205A0E1BCA6753C21C749DC5AEE0
:100BC600FB60065407601C2323120BF4EB543860B9
:100BD60009120BE0120BEF120863ECF8EDF9EEFACE
:100BE600EFCB22EB120BEF80F1543803241C900B51
:100BF60096FE93FC0EEE93FD0EEE930ECE93FF2221
:03000000021103E7
:0C110300787FE4F6D8FD75817F02114A68
:100C0600BB010689828A83E0225002E722BBFE02EC
:090C1600E32289828A83E493221F
:100C1F00BB010CE58229F582E5833AF583E022508A
:100C2F0006E92582F8E622BBFE06E92582F8E222D4
:0D0C3F00E58229F582E5833AF583E49322EE
:100C4C00BB010689828A83F0225002F722BBFE0187
:020C5C00F32281
:100C5E00FAE6FB0808E6F925F0F618E6CA3AF62297
:100C6E00D083D082F8E4937012740193700DA3A315
:100C7E0093F8740193F5828883E473740293686029
:060C8E00EFA3A3A380DF29
:10121E00EFB40A07740D121229740A309811A899A6
:10122E00B8130CC2983098FDA899C298B811F63030
:07123E0099FDC299F5992208
:10124500E4FFFE120C06600C0FEF70010E09E97049
:05125500F20A80EF2207
:10110F0002126EE493A3F8E493A34003F68001F276
:10111F0008DFF48029E493A3F85407240CC8C333E1
:10112F00C4540F4420C8834004F456800146F6DFB0
:10113F00E4800B0102040810204080901281E47EAD
:10114F00019360BCA3FF543F30E509541FFEE493A5
:10115F00A360010ECF54C025E060A840B8E493A36C
:10116F00FAE493A3F8E493A3C8C582C8CAC583CA97
:10117F00F0A3C8C582C8CAC583CADFE9DEE780BE4F
:01128A000063
:00000001FF
