:10022E003F065B4F666D7D077F6F777C395E797118
:10023E00BF86DBCFE6EDFD87FFEFFFFEFDFBF7EFA1
:02024E00DF00CF
:0F029100010A00010F00010B00010C0001080021
:04020A007F057E00EE
:10020E00D3EF9400EE6480948040147D6E7C00EDFC
:0F021E001D70011CED4C70F7EF1F70E41E80E1A6
:01022D0022AE
:10028100758901758CD8758AF0D2AFD2A9D28C222A
:10026F00EF90022E93F5A07F017E0012020EE4F5AF
:02027F00A022BB
:08000300EF90024893F59022F2
:0E02A100EF90023E93F5A07F017E0002020E58
:1001E2007F03120003AF0B12026F7F04120003AFF2
:1001F2000C1202A17F05120003AF0A12026F7F06E2
:08020200120003AF0F02026FAE
:100250007F03120003E50875F00A84FF12026F7F26
:0F02600004120003E50875F00A84AFF002026F84
:1001340020B21012020A20B20AC28C20B2051201A7
:10014400E280F820B31012020A20B30AD28C20B342
:10015400051201E280F820B41E12020A20B418E449
:10016400F509F50DF50E20B40E1201E2E4F50FF5D4
:100174000AF50CF50B80EF20B50E12020A20B50823
:0901840020B50512025080F8229A
:0B02AF001202811201E212013480F8FB
:03000B0002000EE2
:10000E00C0E0C0F0C0D075D000C000C004C005C0B4
:10001E0006C007758CD8758AF00509E5096401706C
:10002E0068F509050EE50E7002050DB4700DE50DAF
:10003E00B41708750D00750E000508AE0DAF0E7CD9
:10004E00037DE812018D8F0BAE0DAF0E7C037DE8A4
:10005E0012018D7E007F64CFCDCFCECCCE12018D1E
:10006E008F0CAE0DAF0E7C007D6412018D7E007F75
:10007E000ACFCDCFCECCCE12018D8F0AAE0DAF0EE4
:10008E007C007D0A12018D8D0FD007D006D005D0D1
:0A009E0004D000D0D0D0F0D0E03242
:030000000200A853
:0C00A800787FE4F6D8FD7581100200EFAF
:10018D00BC000BBE0029EF8DF084FFADF022E4CC56
:10019D00F875F008EF2FFFEE33FEEC33FCEE9DEC1F
:1001AD00984005FCEE9DFE0FD5F0E9E4CEFD22ED65
:1001BD00F8F5F0EE8420D21CFEADF075F008EF2FAF
:1001CD00FFED33FD4007985006D5F0F222C398FDA0
:0501DD000FD5F0EA223D
:1000B4000202AFE493A3F8E493A34003F68001F2B1
:1000C40008DFF48029E493A3F85407240CC8C3334D
:1000D400C4540F4420C8834004F456800146F6DF1C
:1000E400E4800B0102040810204080900291E47E19
:1000F400019360BCA3FF543F30E509541FFEE49311
:10010400A360010ECF54C025E060A840B8E493A3D7
:10011400FAE493A3F8E493A3C8C582C8CAC583CA02
:10012400F0A3C8C582C8CAC583CADFE9DEE780BEBA
:0102A000005D
:00000001FF
