:10019E003F065B4F666D7D077F6F777C395E7971A9
:04017A007F057E007F
:10017E00D3EF9400EE6480948040147D6E7C00ED8D
:0F018E001D70011CED4C70F7EF1F70E41E80E137
:01019D00223F
:10014F00AB0775A008EB75F00A8490019E93F580BC
:10015F007F037E0012017E75A004EB75F00A84E523
:0B016F00F093F5807F037E0002017E0C
:100003007590FE8590085308F0E50864F06043128C
:10001300017A8590085308F0E50864F060EBE50881
:100023002450601124E0601224F0601324707012D5
:10003300E4F509800D7509018008750902800375CF
:100043000903E50990019E93F5808590085308F014
:1000530080C67590FD8590085308F0E50864F0604C
:100063004312017A85B0085308F0E50864F060EBA9
:10007300E5082450601124E0601224F0601324701A
:100083007012750904800D750905800875090680CD
:1000930003750907E50990019E93F5808590085340
:1000A30008F080C67590F78590085308F012017A1E
:1000B300E50864F0604312017A8590085308F0E57F
:1000C3000864F060EBE5082450601124E06012241A
:1000D300F060132470701275090C800D75090D8082
:1000E3000875090E800375090FE50990019E93F5C4
:1000F300808590085308F080C67590FB859008535F
:1001030008F0E50864F0604312017A85900853080B
:10011300F0E50864F060EBE5082450601124E0602A
:100123001224F0601324707012750908800D75098C
:1001330009800875090A800375090BE50990019E7A
:0C01430093F5808590085308F080C622D8
:0501BA0012000380FBB0
:030000000201AE4C
:0C01AE00787FE4F6D8FD7581090201BAE3
:00000001FF
