:1008340030313233343536373839003A2E2D004EC4
:10084400756D626572004D4F4E545545574544547D
:0C085400485546524953415453554E003C
:1008AE00C100016E00016600016700012100016FA9
:1008BE0000016D00013700016B00016A00014F005D
:0608CE00013900012200C7
:07000300D2A712000AD2A6E9
:01000A0022D3
:0809D100120003C2A702000A94
:0A000E00C2A7120005D2A702000AE3
:0808FA001209D17FA012093997
:10090200D2A612000A30A70BE50BC394FA500405D5
:080912000B80F2C2A602000AEC
:03001800020003E0
:10093900E4FEEF25E0FFC2A612000A92A712000505
:0E0949000EBE08EEC2A612000AD2A702000AD5
:1008D500C2A612000AD2A712000AE4FED2A612008E
:1008E5000AEF25E0FDA2A7E4334DFFC2A612000AD8
:0408F5000EBE08E843
:0108F90022DC
:050957002426FD7F04D1
:10095C00AC071208FAAF04120939120902AF0512DA
:08096C00093912090202000E14
:02091A00AD0727
:10091C001208FAAF051209391209021209D17FA186
:0C092C001209391209021208D512000E3F
:01093800229C
:0F07D6008F807F057E001207E5D2A17F057E0090
:1007E500D3EF9400EE6480948040147D6E7C00ED20
:0F07F5001D70011CED4C70F7EF1F70E41E80E1CA
:0108040022D1
:100990007F381209A17F0C1209A17F061209A17FDD
:0109A0000155
:0809A100C2A01207D6C2A12278
:0909C00012086490083FE493FF63
:0809C900D2A01207D6C2A12240
:04086000AD637F0AFB
:10086400ED75F00A84FBED75F00A84AAF0EF24C05C
:10087400FF1209A1EB90083493FF1209C9EA93FF10
:030884000209C99D
:04088700AD367F0605
:10088B00ED75F00A84FBED75F00A84AAF0EF248075
:10089B00FF1209A1EB90083493FF1209C9EA93FFE9
:0308AB000209C976
:04068D00AF4EAE4D71
:04069100AB07AA0603
:100695007C037DE81205818F0B7C037DE8AF03AEFB
:1006A500021205817E007F64CFCDCFCECCCE120560
:1006B500818F0C7C007D64AF03AE021205817E0044
:1006C5007F0ACFCDCFCECCCE1205818F0DAE02AF36
:1006D500037C007D0A120581AB057F811209A1E526
:1006E5000B90083493FF1209C9E50C93FF1209C951
:0D06F500E50D93FF1209C9EB93FF0209C93F
:04076200AF387E002E
:10076600AB07AA067F8D1209A1E4F56C75F003EBC1
:10077600A4256CF582E435F0F583E5822447F582FD
:10078600E5833408F583E493FF1209C9056CE56C2B
:06079600C3940340D722CA
:10097400AD377F0A12088BAD6B7F4A12088BAD6DC1
:0C0984007F0712088BAD6F7F0402088B08
:09079C00D28CD2A97F0C1209A134
:1007A500E4F56FF56DF56BF537F56CE56CC395699B
:1007B5005019744F256CF8E4F67439256CF8E4F695
:1007C5007422256CF8E4F6056C80E0E4F569C2ABAB
:0107D5002201
:10060C00758901758CEC758A78D2AFC2A1120990EC
:10061C007F0112091A8F657F0212091A8F687F03F6
:10062C0012091A8F637F0412091AEF3395E0FEEF5B
:10063C0024DAF54EEE3407F54D7F0512091A8F3684
:10064C007F0612091A8F647F0712091A8F38120657
:10065C008D900841E493FF1209C912088790084154
:10066C00E493FF1209C9120762AD647F0912088B6B
:10067C00AD657F041209C0AD687F071209C002087E
:01068C00600D
:10070200758910D2ABC28E758DD8758BF012099097
:10071200E4F5377FC31209A1E4F56CE56C90084358
:1007220093FF1209C9056CE56CC3940640EDAD6FE9
:100732007F0412088B7F861209A11209C3AD6D7F57
:100742000712088B7F891209A1900840E493FF12D7
:1007520009C9AD377F0A12088BAD6B7F4A02088B3D
:10001E00209027E56A60231207E120901AE56A60B6
:10002E0016E4F5217F05FE1207E5E4F56AC2AB1270
:10003E00060CC28C12079C3090FD3090030200D14A
:10004E001207E120907A0521E521B40108C2A91218
:10005E0007E1120702E52124FEB408005062900069
:10006E0073F828287302008B02009E0200A502007E
:10007E00AC0200B30200BA0200C10200C8C2AB1249
:10008E00060CC28C7FC41209A17F0F1209A1803009
:10009E007FC71209A180297FCA1209A180227F8100
:1000AE001209A1801B7F861209A180147F89120973
:1000BE00A1800D7F8D1209A18006E4F52112079C07
:1000CE003090FD3091030202461207E13091030297
:1000DE000243E5216401705920AB32F56FF56DF5E1
:1000EE006BF537F56CE56CC395695019744F256C3B
:1000FE00F8E4F67439256CF8E4F67422256CF8E40D
:10010E00F6056C80E0E4F569D2AB2091FD308E21CE
:10011E00056B744F256BF8A66F7439256BF8A66DB9
:10012E007422256BF8A637C28EC2AB856B692091FF
:10013E00FDE52124FEB40700400302024390015264
:10014E00F828287302016702018B0201AF0201CF6A
:10015E000201E4020203020226E565C3941750046D
:10016E0005658003E4F565AD657F0112095CAD653B
:10017E007F041208647FC41209A1020243E568C31A
:10018E00943B500405688003E4F568AD687F021265
:10019E00095CAD687F071208647FC71209A10202CD
:1001AE0043E563C3943B500405638003E4F563ADFC
:1001BE00637F0312095C1208607FCA1209A1020252
:1001CE0043054EE54E7002054D12095712068D7FFE
:1001DE00811209A1805FE536C3940C500405368068
:1001EE0003753601AD367F0512095C1208877F86CE
:1001FE001209A18040E564C3941F50040564800376
:10020E00756401AD647F0612095CAD647F09120846
:10021E008B7F891209A1801DE538C3940750040510
:10022E00388003753801AD387F0712095C120762FA
:10023E007F8D1209A13091FD3092030203B912078E
:10024E00E13092030203B6E5216401705530AB2410
:10025E00308E21056B056A744F256BF8A66F7439C5
:10026E00256BF8A66D7422256BF8A6372092051221
:10027E00097480F830AB07208E04D28E056A20AB4D
:10028E0021E56BD394014002156B744F256BF8E694
:10029E00F56F7439256BF8E6F56D7422256BF8E66B
:1002AE00F537E52124FEB4070040030203B69002A1
:1002BE00C3F82828730202D80202FC0203200203AC
:1002CE0040020357020376020399E565D39400407A
:1002DE000415658003756517AD657F0112095CAD68
:1002EE00657F041208647FC41209A10203B6E56893
:1002FE00D3940040041568800375683BAD687F0297
:10030E0012095CAD687F071208647FC71209A1024B
:10031E0003B6E563D3940040041563800375633B15
:10032E00AD637F0312095C1208607FCA1209A10235
:10033E0003B6E54E154E7002154DE54E12095712D5
:10034E00068D7F811209A1805FE536D394014004AA
:10035E001536800375360CAD367F0512095C120812
:10036E00877F861209A18040E564D394014004156D
:10037E0064800375641FAD647F0612095CAD647FF3
:10038E000912088B7F891209A1801DE538D39401CB
:10039E00400415388003753807AD387F0712095CA5
:1003AE001207627F8D1209A13092FD20932A120747
:1003BE00E120932420AB21E56BC395695002056BB8
:1003CE00744F256BF8E6F56F7439256BF8E6F56D0D
:0C03DE007422256BF8E6F5373093FD2201
:1009A90012060C120018D2A9D28C12001EE521B42D
:0709B90001F812097480F33C
:03000B000203EA03
:1003EA00C0E0C0F0C083C082C0D075D000C000C0D9
:1003FA0002C003C004C005C006C007758CEC758A2C
:10040A00780566E56664C860030204DCF566056380
:10041A00E563643C60030204CC0568F563E568643F
:10042A003C60030204B80565F568E5656418706AFE
:10043A0005640538E538B40803753801AD387F0717
:10044A0012095CE52164016003120762756500E523
:10045A0064642070310536756401E536B40D1705FC
:10046A004EE54E7002054D120957E52164016003FD
:10047A0012068D753601AD367F0512095CE52164D9
:10048A00016003120887AD647F0612095CE52164E6
:10049A00016007AD647F0912088BAD657F011209FF
:1004AA005CE52164016007AD657F04120864AD68EC
:1004BA007F0212095CE52164016007AD687F0712BB
:1004CA000864AD637F0312095CE5216401600312CD
:1004DA000860D007D006D005D004D003D002D000DF
:0B04EA00D0D0D082D083D0F0D0E03220
:03001B00020805D3
:10080500C0E0C0D0758DD8758BF00567E567B4017C
:10081500197567000537E537B4640F056D75370041
:0F082500E56DB43C05056F756D00D0D0D0E032A5
:030000000204F502
:0C04F500787FE4F6D8FD75816F02053CAD
:10058100C2D5EC30E709B2D5E4C39DFDE49CFCEE95
:1005910030E715B2D5E4C39FFFE49EFE1205B7C351
:1005A100E49DFDE49CFC80031205B730D507C3E44C
:0605B1009FFFE49EFE2204
:100501000209A9E493A3F8E493A34003F68001F25E
:1005110008DFF48029E493A3F85407240CC8C333FB
:10052100C4540F4420C8834004F456800146F6DFCA
:10053100E4800B01020408102040809008AEE47EA4
:10054100019360BCA3FF543F30E509541FFEE493BF
:10055100A360010ECF54C025E060A840B8E493A386
:10056100FAE493A3F8E493A3C8C582C8CAC583CAB1
:10057100F0A3C8C582C8CAC583CADFE9DEE780BE69
:0108D4000023
:1005B700BC000BBE0029EF8DF084FFADF022E4CC28
:1005C700F875F008EF2FFFEE33FEEC33FCEE9DECF1
:1005D700984005FCEE9DFE0FD5F0E9E4CEFD22ED37
:1005E700F8F5F0EE8420D21CFEADF075F008EF2F81
:1005F700FFED33FD4007985006D5F0F222C398FD72
:050607000FD5F0EA220E
:00000001FF
