:030000000200C03B
:0C00C000787FE4F6D8FD7581130201077B
:10020200E4FEC2A2EF3392A0EF25E0FFD2A20EBE1F
:0202120008F0F2
:0102140022C7
:0D021500C2A1120202AF05120202D2A12204
:1001E0007D017F0C1202151D7F0F1202157DFF7F0E
:1001F000091202157D077F0B1202157D047F0A028A
:020200000215E5
:06000300010900010800E4
:1001BC00750B0F750A0F750C02850A0D850B0E85D4
:1001CC000C0F758901758C3C758AB0D2AFD2A9D24F
:0401DC008C0201E0B0
:0C0222001201E07DEA7F0112014C80FE19
:10014C008F128D13E512D394634009E51275F06498
:10015C0084FD80027D0F7F01120215E51275F0649B
:10016C0084E5F075F00A84FD7F02120215E5127524
:10017C00F00A84ADF07F03120215E513D3946340AB
:10018C0009E51375F06484FD80027D0F7F05120272
:10019C0015E51375F06484E5F075F00A84FD7F06AF
:1001AC00120215E51375F00A84ADF07F07020215F3
:03000B0002000EE2
:10000E00C0E0C0F0C083C082C0D075D000C000C0B8
:10001E0001C002C003C004C005C006C007758C3CF9
:10002E00758AB00509E5096414706CF509E50814C4
:10003E00602414603814604C2403705B759014E5D2
:10004E000D250FFDAF0D12014C150DE50D704885F8
:10005E000A0D05088041759012AD0FAF0F12014CBD
:10006E00150FE50F7031850C0F0508802A7590412C
:10007E00E50E250FFFAD0E12014CD50E1A850B0E97
:10008E0005088013759021AD0FAF0F12014CD50FDF
:10009E0006850C0F750800D007D006D005D004D009
:1000AE0003D002D001D000D0D0D082D083D0F0D0F7
:0200BE00E0322E
:1000CC00020222E493A3F8E493A34003F68001F226
:1000DC0008DFF48029E493A3F85407240CC8C33335
:1000EC00C4540F4420C8834004F456800146F6DF04
:1000FC00E4800B0102040810204080900003E47E91
:10010C00019360BCA3FF543F30E509541FFEE493F8
:10011C00A360010ECF54C025E060A840B8E493A3BF
:10012C00FAE493A3F8E493A3C8C582C8CAC583CAEA
:10013C00F0A3C8C582C8CAC583CADFE9DEE780BEA2
:0100090000F6
:00000001FF
