:0300000002000EED
:0C000E00787FE4F6D8FD75810A020055E9
:0A01D100C0F9A4B0999282F8809062
:0901C700010800010A0001090011
:1001B100EF1FAA0670011E4A600BE4FDEDC3946EA9
:0501C10050EE0D80F777
:0101C6002216
:1000F400AE90EF54F0FDEFA2E1E4334205EF13E4D8
:100104003325E04205EFA2E2E43333333354F842BB
:1001140005EFA2E3E43325E025E04205E4FFED2505
:10012400E0FD9294C291D2910FBF08F2C292D29292
:020134008E90AB
:0101360022A6
:10016A00EF14FF7401A807088002C333D8FCF4F522
:10017A00A0C2A4ED9001D193F580C2B6D2B67F0594
:05018A007E000201B13E
:100137007FFE1200F4758901758C4D758A92D2A9DC
:10014700D28CD2AFE50975F00A12018FFD7F031239
:10015700016AE50975F00A12018FADF07F041201FB
:030167006A80E1CA
:03000B0002009A56
:10009A00C0E0C0D075D000C000C004C005C006C012
:1000AA0007758C4D758A920508E5086414702CF55D
:1000BA0008E50A7004050980021509E509B4070371
:1000CA00750A01E5097002F50AAF097401A8070863
:1000DA008002C333D8FCF4FF1200F4D007D006D054
:0A00EA0005D004D000D0D0D0E032E1
:10001A00020137E493A3F8E493A34003F68001F2C4
:10002A0008DFF48029E493A3F85407240CC8C333E7
:10003A00C4540F4420C8834004F456800146F6DFB6
:10004A00E4800B01020408102040809001C7E47E7E
:10005A00019360BCA3FF543F30E509541FFEE493AB
:10006A00A360010ECF54C025E060A840B8E493A372
:10007A00FAE493A3F8E493A3C8C582C8CAC583CA9D
:10008A00F0A3C8C582C8CAC583CADFE9DEE780BE55
:0101D000002E
:10018F00C2D530F707B2D563F0FF05F030E70CB2F8
:10019F00D5F4048463F0FF05F080018430D502F4B8
:0201AF00042228
:00000001FF
