:10063E003A2020203A20003230002D2020202D207C
:10064E0000D6DC00B5B1C7B0CAD2CEC2A3BA00A1E3
:02065E00E600B4
:0B073100EF1FAC0670011E4C70F6229A
:1006D800EF1FAA0670011E4A600BE4FDEDC3946E7D
:0506E80050EE0D80F74B
:0106ED0022EA
:10070300E4FEEF25E0FF9282C292D2920EBE08F27F
:0107130022C3
:08059F0075F00A842430F519FF
:1005A700D2832000047FF880027FFA120703E5193F
:1005B70054F0FF120703E519C454F0FF120703C2F2
:0205C70083228D
:100571008B168A178918C2008F19801CAB16AA170F
:10058100A9181202C06016D2000518E518700205FC
:0E0591001714F91202C0F5191205A780DF2217
:10071400E4FEEFC313FFC2969297D2960EBE08F280
:0107240022B2
:1005C900E4FFFEC296A297E433FDA806088002C3A1
:1005D90033D8FC4207D2960EBE08E8EFC4540F7513
:0905E900F00AA4FEEF540F2EFFEE
:0105F20022E6
:10066000C2B0C296D2B0120714ED75F00A84C45419
:10067000F0FFED75F00A84E5F04FFF120714C2B0E9
:010680002257
:1006EE00E4FEC2B0C296D2B0EF4401FF120714125C
:0406FE0005C9C2B0B8
:0107020022D4
:1005F300D2907F087E00120731C2907F507E001296
:100603000731D2907F0E7E00120731A29092007FB5
:06061300147E0002073115
:02068100AD07C3
:10068300E4FBEDC313FDC29092907F057E00120739
:0E06930031D2900BBB08EB7F047E00020731D2
:10061900E4FDFBC290D290A290E433FFA8030880C6
:1006290002C333D8FC42057F047E001207310BBB9D
:0406390008E1AF0520
:01063D00229A
:1004A0001205F37FCC1206817F441206811205F3F8
:1004B0007FCC1206817FBE120681120619AA07128E
:1004C0000619EFFEEAFFE4AD07AC06120206E4FBF4
:1004D000FA7980783D1200FB8F198E188D178C16D3
:1004E000E4FFFE7D207C41AB19AA18A917A81612BB
:0E04F00000FBE4FBFAF9783F12000A12023F0B
:0104FE0022DB
:1004FF00C2007519011205A77F057E001206D87B71
:10050F00FF7A06793E7F831205717BFF7A06794564
:10051F007F901205717BFF7A0679487F92120571E1
:0E052F007BFF7A06794F7F9612057102043920
:1006BE00C2007519011205A77F057E001206D87BB0
:0A06CE00FF7A0679527F8102057160
:1006A100C2008F191205A7D200ED12059FD200EDED
:0D06B10075F00A84E5F02430F5190205A764
:10043900751600751700751809E4FCEC25E0248091
:10044900FF1206EEAB160518E518AA177002051774
:1004590014F9EF1202D90CBC07E1AD0B7F82120629
:10046900A1AD0A7F841206A1AD097F861206A1AD4E
:100479000F7F911206A1AD0D7F931206A1AD0C7FDE
:10048900951206A1C2007519971205A7D200E50EAB
:070499002430F5190205A74C
:10053D007F801206EE8F09E509650860268509089A
:10054D00C2007519861205A7D200E50912059FD2C2
:10055D0000E50975F00A84E5F01205A3E5097003BD
:04056D001204392219
:1003C8001204A0AB07AA06EB65117003EA6510607A
:1003D8005F8A108B11C2007519921205A7D2007C92
:1003E800007D64AF03AE021202EBEF1205A3D20048
:1003F8007C007D64AF03AE021202EB7E007F0ACF61
:10040800CDCFCECCCE1202EBEF1205A3D2007519D8
:100418002E1205A7D200AE02AF037C007D0A12029D
:10042800EBED1205A37BFF7A06795D7F95120571C6
:0104380022A1
:10034E00C20075190C1205A7E4FD7F8E120660120D
:10035E0004FF1204FFE4F512F513E4F514F515127B
:10036E00053D0515E51570020514C3946EE514944C
:10037E000040EC0513E51370020512C39496E512C6
:10038E00940040D61206BEE4F512F513C3E513949D
:10039E000AE512940050BBE4F514F5151203C805D6
:1003AE0015E51570020514C3946EE514940040EC27
:0A03BE000513E51370D6051280D276
:100003000202ABE86480F8E933E83360110460F07E
:10001300ED33EC337009E8FCE9FDEAFEEBFF220463
:1000230060DED3EB9FEA9EE99DE8C2E78CF0C2F75E
:1000330095F0400CE8CCF8E9CDF9EACEFAEBCFFB2A
:1000430012027685D0F05804700320D5B3E804700B
:10005300075002B2D50202B592D5EC0460F7E4CCA6
:10006300C0E0C398F8603B94186008400DD0E0FBF3
:1000730002028DE4FBFAC9FC8028E830E406E4C9F7
:10008300FBE4CAFCE830E305E4C9CACBFCE8540747
:100093006010F8C3E913F9EA13FAEB13FBEC13FC52
:1000A300D8F130F52FC3E49CFCEF9BFFEE9AFEEDF5
:1000B30099FDD0E0FBEF4E4D4C701222DB030202A0
:1000C300B2EC2CFCEF33FFEE33FEED33FDED30E706
:1000D300EB02028DEF2BFFEE3AFEED39FDD0E0FB94
:1000E30050130BBB00030202B5ED13FDEE13FEEF3D
:0800F30013FFEC13FC02028D67
:1000FB00EC4D6011E8497017ED33EC3304600DE4FF
:10010B00FCFFFEFD22E933E8330470F80202AB1268
:10011B00027658046009E4CC248150062850090269
:10012B0002B52840030202B2C0E0EB4A7044B9802A
:10013B0006D0E0FB0202A1EF4E701CBD8008EBFF66
:10014B00EAFEE9FD80EBE98DF0A4FEE5F00201E4A7
:10015B00E9CDF9EAFEEBFFEF89F0A4FCE5F0CE89DF
:10016B00F0A42EFFE435F0CD89F0A42DFEE435F09C
:10017B008067EF4E7005BD80D780C3EF8BF0A4ACCA
:10018B00F0EE8BF0A42CFCE435F0F8EF8AF0A42C05
:10019B00E5F038FCE433CB8DF0A42CFCE5F03BF818
:1001AB00EE8AF0A42CFCE5F038F8E433CF89F0A408
:1001BB002CFCE5F038CF3400CE89F0A42FFFE5F00E
:1001CB003EFEE433C98DF0A42EFEE5F039CD8AF066
:1001DB00A42FFFE5F03EFEE43DFD33D0E0FB5007DE
:1001EB000BBB000F0202B5EC2CFCEF33FFEE33FE22
:0601FB00ED33FD02028D50
:1002010075F020800E75F010800575F0087D007E78
:10021100007F003392D530D503120340EC334010F8
:10022100EF33FFEE33FEED33FDEC33FCD5F0ED2281
:0E023100E5F0247EA2D513CC92E7CDCEFF22BD
:10023F00EDD2E7CD33EC3392D524814006E4FFFEB7
:10024F00FDFC22FCE4CFCECDCC24E0501174FF8016
:10025F00EDC3CC13CCCD13CDCE13CECF13CF0470B3
:07026F00F030D5DE02034070
:10027600E9D2E7C933E833F892D5EDD2E7CD33ECCE
:0702860033FC5002B2D52247
:10028D00EC30E7100FBF000C0EBE00080DBD0004D2
:10029D000BEB6014A2D5EB13FCED92E7FD2274FF7E
:1002AD00FCFDFEFF22E480F8A2D574FF13FC7D80D7
:0302BD00E480EFEB
:03000000020725CF
:0C072500787FE4F6D8FD75812002034EB9
:1002C000BB010689828A83E0225002E722BBFE023C
:0902D000E32289828A83E493226F
:1002D900BB010689828A83F0225002F722BBFE0104
:0202E900F322FE
:1002EB00BC000BBE0029EF8DF084FFADF022E4CCF7
:1002FB00F875F008EF2FFFEE33FEEC33FCEE9DECC0
:10030B00984005FCEE9DFE0FD5F0E9E4CEFD22ED05
:10031B00F8F5F0EE8420D21CFEADF075F008EF2F4F
:10032B00FFED33FD4007985006D5F0F222C398FD40
:05033B000FD5F0EA22DD
:0E034000C3E49FFFE49EFEE49DFDE49CFC22CE
:00000001FF
