:0300000002007B80
:0C007B00787FE4F6D8FD75812002009823
:06009100E4FF0FBF01FCBB
:010097002246
:10006500C293120091300104D2918002C291120014
:0600750091D293020091FC
:02004D00AE07FC
:10004F00E4FDEE339200A2009201120065EE25E06E
:05005F00FE0DBD08EDDF
:010064002279
:0A008700C293120091D2930200917F
:100003007D647C00D291ED1DAE0470011C4E600531
:1000130012008780F1C2907F4012004DE4FCFDC2C4
:10002300011200650DBD00010CED64214C70F07FE1
:100033009512004DD291E4FCFD1200870DBD000125
:090043000CED64214C70F2D29026
:01004C002291
:0500980012000380FED0
:00000001FF
