:030000000203F206
:0C03F200787FE4F6D8FD75812002043904
:10061B00A1E60020202020202020202000C9CFCFC1
:10062B00DED6B5A3BA00B2C9BCAFD6B5A3BAB0B4C7
:07063B005331BFAACABC0045
:0B076B0001130002110000C101C100D9
:04072B007F057E00C8
:10072F00EF1FAA0670011E4A600BE4FDEDC3946E25
:05073F0050EE0D80F7F3
:010744002292
:0A078200D2A600D2A500C2A60022F4
:0A078C00C2A600D2A500D2A60022EA
:10074500E4FFD2A50030A609EFC394FA50030F8049
:04075500F4C2A50045
:01075900227D
:10071000E4FEEF25E0FFC2A50092A6D2A5000EBE22
:0B07200008F0C2A500D2A600020745A9
:1005C700E4FFC2A500D2A600FED2A500A2A6E4338E
:1005D700FDC374079EFCEDA804088002C333D8FC52
:0905E7004207C2A5000EBE08E0A7
:0105F00022E8
:0F064200AE11AF127C007D0A1202F6AD07E4FF85
:10065100AC071207827FA0120710AF04120710AF78
:070661000512071002078CCF
:0206B300AD0791
:1006B500E4FF1207827FA0120710AF051207101280
:0D06C50007827FA11207101205C712078CD3
:0106D2002205
:07000300D2A500D2A60022E5
:0B077700EF1FAC0670011E4C70F62254
:10066800D2907F087E00120777C2907F507E0012DA
:100678000777D2907F0E7E00120777A29092027FB2
:06068800147E000207775A
:0206D300AD0771
:1006D500E4FBEDC313FDC29092907F057E001207E7
:0E06E50077D2900BBB08EB7F047E00020777F4
:10068E00E4FDFBC290D290A290E433FFA803088051
:10069E0002C333D8FC42057F047E001207770BBBE2
:0406AE0008E1AF05AB
:0106B2002225
:1004E3001206687FCC1206D37F441206D312066825
:1004F3007FCC1206D37FBE1206D312068EAA071232
:10050300068EEFFEEAFFE4AD07AC06120211E4FB30
:10051300FA7980783D1201068F0F8E0E8D0D8C0CAB
:10052300E4FFFE7D207C41AB0FAA0EA90DA80C129F
:0E0533000106E4FBFAF9783F12001512024AA5
:010541002297
:10075A00E4FEEF25E0FF9282C292D2920EBE08F228
:01076A00226C
:0805F1001202F6EF2430F510B0
:1005F900D2832002047FF880027FFA12075AE5109D
:1006090054F0FF12075AE510C454F0FF12075AC2FA
:0206190083223A
:100599008B0D8A0E890FC2028F10801CAB0DAA0E1B
:1005A900A90F1202CB6016D202050FE50F700205E2
:0E05B9000E14F91202CBF5101205F980DF22A4
:09047E003511F511FCAD127F846B
:100487008F0CAB05AA04C202850C101205F9D20223
:100497007C007D64AF03AE021205F1D2027C007DC1
:1004A70064AF03AE021202F67E007F0ACFCDCFCE35
:1004B700CCCE1205F1D20275102E1205F9D202AE7A
:1004C70002AF037C007D0A1202F6ED1205F5E50C7A
:0C04D7002402FF7BFF7A06791B020599C6
:1005420020B41812072B20B40D740A2512F512E4F8
:1005520012047E12064220B43780FB20B51912071E
:100562002B20B50E74F62512F51274FF12047E12BA
:10057200064220B51B80FB20B31612072B20B30DB9
:10058200D2017BFF7A06791E7F9412059930B3FD62
:070592007F057E0002072F28
:10035900120003E4FF1206B37511008F12AE117C6F
:10036900007D0A1202E48E118F12758901758C4F76
:10037900758A22D2A9D28CD2AFC20275100C12058D
:10038900F97BFF7A0679287F801205997BFF7A0627
:1003990079317F90120599AC11120483200105125D
:1003A900054280F81204E38E088F09E509650B7090
:1003B90004E508650A60E585080A85090BAD09ACFD
:1003C900087F94120487C3E5099512E50895114041
:1003D90009200006C2A7D28CD200C3E5099512E50F
:0903E90008951150B7C20080B361
:03000B000206F3F7
:1006F300C0E0C0D0758C4F758A220513E513B43C56
:0D07030007751300D2A7C28CD0D0D0E03211
:10000E000202B6E86480F8E933E83360110460F068
:10001E00ED33EC337009E8FCE9FDEAFEEBFF220458
:10002E0060DED3EB9FEA9EE99DE8C2E78CF0C2F753
:10003E0095F0400CE8CCF8E9CDF9EACEFAEBCFFB1F
:10004E0012028185D0F05804700320D5B3E80470F5
:10005E00075002B2D50202C092D5EC0460F7E4CC90
:10006E00C0E0C398F8603B94186008400DD0E0FBE8
:10007E00020298E4FBFAC9FC8028E830E406E4C9E1
:10008E00FBE4CAFCE830E305E4C9CACBFCE854073C
:10009E006010F8C3E913F9EA13FAEB13FBEC13FC47
:1000AE00D8F130F52FC3E49CFCEF9BFFEE9AFEEDEA
:1000BE0099FDD0E0FBEF4E4D4C701222DB03020295
:1000CE00BDEC2CFCEF33FFEE33FEED33FDED30E7F0
:1000DE00EB020298EF2BFFEE3AFEED39FDD0E0FB7E
:1000EE0050130BBB00030202C0ED13FDEE13FEEF27
:0800FE0013FFEC13FC02029851
:10010600EC4D6011E8497017ED33EC3304600DE4F3
:10011600FCFFFEFD22E933E8330470F80202B61252
:10012600028158046009E4CC248150062850090253
:1001360002C02840030202BDC0E0EB4A7044B98009
:1001460006D0E0FB0202ACEF4E701CBD8008EBFF50
:10015600EAFEE9FD80EBE98DF0A4FEE5F00201EF91
:10016600E9CDF9EAFEEBFFEF89F0A4FCE5F0CE89D4
:10017600F0A42EFFE435F0CD89F0A42DFEE435F091
:100186008067EF4E7005BD80D780C3EF8BF0A4ACBF
:10019600F0EE8BF0A42CFCE435F0F8EF8AF0A42CFA
:1001A600E5F038FCE433CB8DF0A42CFCE5F03BF80D
:1001B600EE8AF0A42CFCE5F038F8E433CF89F0A4FD
:1001C6002CFCE5F038CF3400CE89F0A42FFFE5F003
:1001D6003EFEE433C98DF0A42EFEE5F039CD8AF05B
:1001E600A42FFFE5F03EFEE43DFD33D0E0FB5007D3
:1001F6000BBB000F0202C0EC2CFCEF33FFEE33FE0C
:06020600ED33FD02029839
:10020C0075F020800E75F010800575F0087D007E6D
:10021C00007F003392D530D50312034BEC334010E2
:10022C00EF33FFEE33FEED33FDEC33FCD5F0ED2276
:0E023C00E5F0247EA2D513CC92E7CDCEFF22B2
:10024A00EDD2E7CD33EC3392D524814006E4FFFEAC
:10025A00FDFC22FCE4CFCECDCC24E0501174FF800B
:10026A00EDC3CC13CCCD13CDCE13CECF13CF0470A8
:07027A00F030D5DE02034B5A
:10028100E9D2E7C933E833F892D5EDD2E7CD33ECC3
:0702910033FC5002B2D5223C
:10029800EC30E7100FBF000C0EBE00080DBD0004C7
:1002A8000BEB6014A2D5EB13FCED92E7FD2274FF73
:1002B800FCFDFEFF22E480F8A2D574FF13FC7D80CC
:0302C800E480EFE0
:1003FE00020359E493A3F8E493A34003F68001F2B9
:10040E0008DFF48029E493A3F85407240CC8C333FF
:10041E00C4540F4420C8834004F456800146F6DFCE
:10042E00E4800B010204081020408090076BE47EEC
:10043E00019360BCA3FF543F30E509541FFEE493C3
:10044E00A360010ECF54C025E060A840B8E493A38A
:10045E00FAE493A3F8E493A3C8C582C8CAC583CAB5
:10046E00F0A3C8C582C8CAC583CADFE9DEE780BE6D
:010776000082
:1002CB00BB010689828A83E0225002E722BBFE0231
:0902DB00E32289828A83E4932264
:1002E400EF8DF0A4A8F0CF8CF0A428CE8DF0A42E2E
:0202F400FE22E8
:1002F600BC000BBE0029EF8DF084FFADF022E4CCEC
:10030600F875F008EF2FFFEE33FEEC33FCEE9DECB4
:10031600984005FCEE9DFE0FD5F0E9E4CEFD22EDFA
:10032600F8F5F0EE8420D21CFEADF075F008EF2F44
:10033600FFED33FD4007985006D5F0F222C398FD35
:050346000FD5F0EA22D2
:0E034B00C3E49FFFE49EFEE49DFDE49CFC22C3
:00000001FF
