:030000000200F605
:0C00F600787FE4F6D8FD75810B02000352
:07010C00D297120113D296F5
:0101130022C9
:0801140012010CC29702011355
:0A010200C29712010ED297020113FA
:08005A001201147FA21200D86C
:10006200D29612011330970BE50AC394FA50040595
:080072000A80F2C2960201139C
:06011C0012010CC290224A
:1000D800E4FEEF25E0FFC296120113929712010E7B
:0E00E8000EBE08EEC296120113D2970201134B
:10003500C296120113D297120113E4FED296120151
:1000450013EF25E0FDA297E4334DFFC2961201138D
:040055000EBE08E8EB
:010059002284
:10009A00AC0712005AAF041200D8120062AF051260
:0F00AA0000D81200621201027F017E0002007A6C
:0200B900AD0791
:1000BB0012005AAF051200D81200621201147FA36E
:0C00CB001200D81200621200351201026F
:0100D7002206
:1000030012011CE4F508AD08AF0812009A7F0A7EBE
:100013000012007A0508E508D394FE40E9E4F508E8
:10002300AF081200B98F090508E508D394FE40F024
:0200330080FE4D
:10007A00D3EF9400EE6480948040147D6E7C00ED92
:0F008A001D70011CED4C70F7EF1F70E41E80E13C
:010099002244
:00000001FF
