:0500C9001200CEAF059E
:1000CE00E4FEC2A2EF3392A0EF25E0FFD2A20EBE55
:0200DE0008F028
:0100E00022FD
:10000300AC07C2A1ECC394014015ECD39408500F84
:100013001200C9E4FF1200CEE4FF1200CE8024ECEC
:10002300C394094019ECD394105013E4FF1200CE8B
:10003300E4FF1200CEEC24F8FF1200C98005AF04E0
:060043001200C9D2A12247
:1000E100AC03C2A11200C9AF041200CEAF0C1200C2
:0400F100CED2A122A8
:10004900750C017B0C7D017F0C1200E1E4F50C7B42
:100059000F1D7F0F1200E1750CFF7B097DFF7F09E2
:100069001200E1750C077B0B7D077F0B1200E17510
:0A0079000C041B7D047F0A0200E165
:100083001200497508017D06AF081200037FE87E60
:10009300031200A90508E508C3941140E97D027F16
:0600A3000E12000380FEB6
:1000A900D3EF9400EE6480948040147D6E7C00ED63
:0F00B9001D70011CED4C70F7EF1F70E41E80E10D
:0100C8002215
:030000000200F506
:0C00F500787FE4F6D8FD75810C020083D2
:00000001FF
