:0300000002000EED
:0C000E00787FE4F6D8FD758107020055EC
:0A013300C0F9A4B0999282F8809000
:08013D00410001004100000037
:10011D00EF1FAA0670011E4A600BE4FDEDC3946E3D
:05012D0050EE0D80F70B
:0101320022AA
:1000F800EF14FF7401A807088002C333D8FCF4F595
:10010800A0C2A4ED90013393F580C2B6D2B67F05A4
:050118007E0002011D44
:1000CA00758901758C4C758AD0D2AFD2A9D28C9021
:1000DA000001E075F00A84FD7F031200F890000128
:0E00EA00E075F00A84ADF07F041200F880E1AA
:03000B0002009A56
:10009A00C0E0C083C082C0D0758C4C758AD09000F5
:1000AA0000E004F0E0B4140FA3E004F0E0B43C0272
:1000BA00E4F0900000E4F0D0D0D082D083D0E032D7
:10001A000200CAE493A3F8E493A34003F68001F232
:10002A0008DFF48029E493A3F85407240CC8C333E7
:10003A00C4540F4420C8834004F456800146F6DFB6
:10004A00E4800B010204081020408090013DE47E08
:10005A00019360BCA3FF543F30E509541FFEE493AB
:10006A00A360010ECF54C025E060A840B8E493A372
:10007A00FAE493A3F8E493A3C8C582C8CAC583CA9D
:10008A00F0A3C8C582C8CAC583CADFE9DEE780BE55
:0101450000B9
:00000001FF
