:0300000002056096
:0C056000787FE4F6D8FD758116020512C4
:1000030004400E50784808480840FFFE0840084462
:100013000A440C48183068220852088A2B0610023A
:1000230001000100010001000100010002800280C3
:1000330004400440082008201010200840048002D7
:1000430002000200FFFE040004000FF00810181065
:100053002FF0481088100FF00810081008500820DF
:100063001040104020407E7C42844284430442443A
:100073007E2442244204420442047E0442280010A7
:1000830004000E007800087C0844FF440844184428
:100093001C442A442A444844887C08440800080035
:1000A3000200010000007FFC0100010001000100CB
:1000B3003FF801000100010001000100FFFE000004
:1000C300020001007FFC00000820042004403FFEE2
:1000D300200020002000200020004000400080007D
:1000E30000007FFC00800080010001000340052028
:1000F30009101108210441048100010001000100DD
:10010300010021001100110001007FF8020802081C
:10011300028804480448080810082008405080203A
:1001230000802040104017FC00100210F12010A0A6
:10013300104010A0111012081408280047FE0000F8
:10014300000000007FFC010001000100010001002C
:1001530001000100010001000100FFFE000000009A
:1001630000007FFC044004403FF8244824483FF843
:1001730002007FFC042008401C80038006703808BE
:10018300020002000400FFFE080008401040304057
:1001930057FC904010401040104010401FFE1000CC
:1001A3001020102010201120112CFD34116413A4F1
:1001B3001124113411281D22E122410200FE000006
:1001C3000000000000000000000000000000FFFE2F
:1001D300000000000000000000000000000000001C
:1001E30002000200020002000200020003F8020003
:1001F300020002000200020002000200FFFE0000F3
:100203001FF0101010101FF0101010101FF000003E
:10021300FFFE0100110011F811002900450083FEC3
:1002230001000100010001003FF821082108210815
:10023300210821083FF82108010001000100010005
:1002430000007FFC400440045FF4410441044FE498
:100253004104414441245FF4400440047FFC4004D2
:10026300100011FC200824104430F84810842302A5
:100273004000FDFC402000201C20E02043FE000045
:100283000010041022102110211020102010202013
:100293002020202024402850308821040202040218
:1002A30001001110110822003FFC0200040007F8AE
:1002B3000A080908111010A0204040A003181C06CA
:1002C30000007FF8001000200040018001000100C1
:1002D300010001000100010001000100050002000E
:1002E30000003FF82008200820083FF820802080E5
:1002F3003FFC20802040204024242814300C20047C
:1003030000003FFC200420042FF42004200427E4F1
:1003130024242424242427E424242004201420082F
:1004F400D3EF9400EE940040147D6E7C00ED1D70EB
:0D050400011CED4C70F7EF1F70E61E80E348
:0105110022C7
:08052E00C2B68F807F0A7E0037
:0B053600EF1FAC0670011E4C70F62297
:060541003EF583E493FF88
:0C054700D2A7C2A612052EC2A7D2B6226F
:1004D300F510851113F514751224AB12AD14AF1377
:0504E3001205537FB07B
:0C04E800D2A7D2A612052EC2A7D2B622BF
:08056C00120547AF050204E887
:0D055300120547AF05120547AF030204E88B
:1004B0007FB21204E8E4F5131204D8E4FBFAE4FF77
:1004C0001205470BBB00010ABA13F3BB88F07FB2D9
:0304D0000204E83B
:10047200D2B6E4FE7D107C40FF7B401205537E2005
:10048200E4FD7C417F200B120553E4FE7C42FF0B0E
:100492001205537C437F1E0B1205537CA27FA212CE
:0E04A20004E87C807F801204E87F9E0204E85C
:1003D2007B22E4FD7F031205537B247D1CE4FF1284
:1003E2000553E4F508F5097FB01204E8E4FBFAEBE3
:1003F20025E0FDEA33FCE509C4F8540FC868FFE5BF
:1004020008C454F048FEEF2DFFEE3CFE74032FF5B6
:100412008274001205410BBB00010AEB64084A70AA
:10042200CEE4FAFBEB25E0FDEA33FCE509C4F8541F
:100432000FC868FFE508C454F048FEEF2DFFEE3CFC
:10044200FE74042FF58274001205410BBB00010AF1
:10045200EB64084A70CE7FB21204E80509E5097020
:0F046200020508C39458E508940050030203E90B
:010471002268
:10032300750E10750F00E4F508F509E50925E0FFE2
:10033300E50833FEE50F2FF511E50E3E1204D3E574
:100343000D75F00BA4250925E025E02480FF120597
:1003530047E50D75F00BA4250925E025E02481FF71
:100363001205477FB21204E874202511F511E43514
:10037300101204D3E50D75F00BA4250925E025E043
:100383002482FF120547E50D75F00BA4250925E02E
:1003930025E02483FF1205477FB21204E87FE87E3D
:1003A300031204F40509E50970020508C39417E56F
:1003B300089400500302032EE50DAE0C7806C333F8
:0E03C300CE33CED8F92440F50FEE3410F50EEF
:0103D1002209
:10051200C2A57F057E001204F4D2A5120472120451
:0C052200B01203D21204B012032380FEBA
:00000001FF
