:1002AF00000102030405060708090A0B0C0D0E0FC7
:1001F200100800000809097F254F291F192B260422
:100202000000101800000040404850606050484014
:100212007C0000001028000000001F11111F1111A6
:100222001F0000010200103800007E42427E42425E
:100232007E4242828206020010480003020203024A
:1002420002020302020404081000105800F8080811
:0C025200F8080808F80808080818080058
:10029C00D3EF9400EE648094804007EF1F70F11E42
:0202AC0080EEE2
:0102AE00222D
:10025F00C291D292E4FBFAEF139290D291C291EF36
:10026F00C313FF0BBB00010AEB64084A70E9E4FA01
:10027F00FBED139290D291C291EDC313FD0BBB0016
:0C028F00010AEB64084A70E9D291C292A7
:01029B002240
:10000300E4F56AF56BE4F568F569AE69EE9002AF65
:1000130093F5A074182EF8E6FF74082EF8E6FD1287
:10002300025F7F327E0012029C0569E5697002055A
:1000330068C39410E5686480948040CE056BE56BDB
:100043007002056AC3940AE56A6480948040B6E44A
:10005300F56AF56BC3E56B9410E56A648094805090
:100063009FAF6B74082FF8E630E70A74582FF8E651
:100073004401F6800874582FF8E654FEF6AF6B740B
:10008300082FF8C000E6FE25E0D000F674182FF81C
:10009300E630E70A74082FF8E64401F6800874088E
:1000A3002FF8E654FEF6AF6B74182FF8C000E6FE87
:1000B30025E0D000F674282FF8E630E70A74182FED
:1000C300F8E64401F6800874182FF8E654FEF6AFFC
:1000D3006B74282FF8C000E6FE25E0D000F67438D4
:1000E3002FF8E630E70A74282FF8E64401F6800873
:1000F30074282FF8E654FEF6AF6B74382FF8C0005F
:10010300E6FE25E0D000F674482FF8E630E70A74DF
:10011300382FF8E64401F6800874382FF8E654FEC9
:10012300F6AF6B74482FF8C000E6FE25E0D000F66A
:1001330074582FF8E630E70A74482FF8E64401F6BE
:10014300800874482FF8E654FEF67458256BF8C0FF
:1001530000E6FF25E0D000F6056BE56B7002056A4B
:0301630002005740
:0300000002016694
:0C016600787FE4F6D8FD75816D0201ADD4
:10017200020003E493A3F8E493A34003F68001F2A0
:1001820008DFF48029E493A3F85407240CC8C3338E
:10019200C4540F4420C8834004F456800146F6DF5D
:1001A200E4800B01020408102040809001F2E47EFA
:1001B200019360BCA3FF543F30E509541FFEE49352
:1001C200A360010ECF54C025E060A840B8E493A319
:1001D200FAE493A3F8E493A3C8C582C8CAC583CA44
:1001E200F0A3C8C582C8CAC583CADFE9DEE780BEFC
:01025E00009F
:00000001FF
