:1000750010FE9292FE921010010203040506070875
:10002500D3EF9400EE6480948040147D6E7C00EDE7
:0F0035001D70011CED4C70F7EF1F70E41E80E191
:010044002299
:10004500120003750801E50890007493FDAF0812CE
:0D00550000850508E508C3940940EB80FE16
:10006200E4FEC2A2EF3392A0EF25E0FFD2A20EBEC1
:0200720008F094
:010074002269
:0D008500C2A1120062AF05120062D2A122DA
:100003007D017F0C120085E41D7F0F120085E47FC4
:10001300091200857D077F0B1200857D047F0A028C
:02002300008556
:0300000002009269
:0C009200787FE4F6D8FD75810802004577
:00000001FF
