:04000E0002080000E4
:1002E400D3EF9400EE6480948040147D6E7C00ED26
:0F02F4001D70011CED4C70F7EF1F70E41E80E1D0
:0103030022D7
:10011E0012029EE4F50AF50B758915758D3C758BEB
:10012E00B0F58CF58AD2AFD2ABD28ED28CE5096403
:10013E0001450870F8F508F509AF8CAD8AAE8CEF65
:10014E00B506123395E0EFFEED3395E0FCE42DF5A8
:10015E000DEE3CF50C7F80120265AF0DAE0C120059
:08016E00AAE4F58CF58A80C5B6
:03001B000202C21C
:1002C200C0E0758D3C758BB0050BE50B7002050A1D
:1002D2006414450A7009F50AF50BF508750901D091
:0202E200E03208
:0B0003003031323334353637383900E5
:100265008F0EC2A67F017E001202E4C2A57F017E29
:10027500001202E4850E807F017E001202E4D2A7FF
:100285007F017E001202E4C2A77F017E001202E414
:09029500D2A67F017E000202E402
:10021A00EF3395E0FE74032FF58274003EF583E414
:02022A0093FF40
:10022C008F12C2A67F017E001202E4D2A57F017E4E
:10023C00001202E48512807F017E001202E4D2A734
:10024C007F017E001202E4C2A77F017E001202E44D
:09025C00D2A67F017E000202E43B
:10029E00C2A6C2A77F301202657F021202657F0FCF
:1002AE001202657F011202657F0C1202657F327E9B
:0402BE00000202E454
:0201CB008F1390
:1001CD00ED75F00A84F514ED75F00A8485F015E5EA
:1001DD0013C3940A5006E5132480800BE513C394D2
:1001ED000A4008E5132486FF120265E5149000030A
:1001FD0093FF12022C7F057E001202E4E51590009C
:0D020D000393FF12022C7F057E000202E425
:0400AA00AB07AA06F0
:1000AE007C037DE81201768F0E7C037DE8AF03AEF4
:1000BE00021201767E007F64CFCDCFCECCCE120160
:1000CE00768F0F7C007D64AF03AE021201767E0048
:1000DE007F0ACFCDCFCECCCE1201768F10AE02AF2F
:1000EE00037C007D0A1201768D11AF0E12021AAF3B
:1000FE000F12021AAF1012021AAF11EF3395E0FE73
:10010E0074032FF58274003EF583E493FF02022CF4
:0300000002001EDD
:0C001E00787FE4F6D8FD758115020065BE
:10017600BC000BBE0029EF8DF084FFADF022E4CC6D
:10018600F875F008EF2FFFEE33FEEC33FCEE9DEC36
:10019600984005FCEE9DFE0FD5F0E9E4CEFD22ED7C
:1001A600F8F5F0EE8420D21CFEADF075F008EF2FC6
:1001B600FFED33FD4007985006D5F0F222C398FDB7
:0501C6000FD5F0EA2254
:10002A0002011EE493A3F8E493A34003F68001F2CD
:10003A0008DFF48029E493A3F85407240CC8C333D7
:10004A00C4540F4420C8834004F456800146F6DFA6
:10005A00E4800B010204081020408090000EE47E28
:10006A00019360BCA3FF543F30E509541FFEE4939B
:10007A00A360010ECF54C025E060A840B8E493A362
:10008A00FAE493A3F8E493A3C8C582C8CAC583CA8D
:10009A00F0A3C8C582C8CAC583CADFE9DEE780BE45
:0100120000ED
:00000001FF
